:020000040000FA
:0400000007EF00F016
:0A0008005C82A3ED26F0F8EF23F070
:10080000006042A20DAEE534BF6BD30DBCBA132F0E
:10081000BD75AA2A3EDB0FC93F25302E32662F2533
:100820006400494E46004E414E00696E66006E619E
:100830006E006C660000000E0001976F000E966F50
:1008400072C0A8F073C0A9F074C0AAF075C0ABF074
:10085000ABBF2FEF04F02DEF04F045EF04F0000ED6
:10086000976F010E966FA8C004F0A9C005F0AAC04A
:1008700006F0ABC007F006EC26F004C0A8F005C0F7
:10088000A9F006C0AAF007C0ABF0000E0001AF6FE0
:10089000000EAE6FF3C09BF0F4C09CF09651971120
:1008A000D8A455EF04F057EF04F05EEF04F05AA41B
:1008B0005CEF04F05EEF04F078EF04F096519711CE
:1008C000D8A465EF04F067EF04F06DEF04F0000EBC
:1008D000816F2B0E806F71EF04F0000E816F2D0E73
:1008E000806F80C016F1AE4BAF2B9B07D8A09C0742
:1008F000A8C004F0A9C005F0AAC006F0ABC007F07C
:1009000057EC20F004040510D8A489EF04F08BEF15
:1009100004F0E2EF04F0BF0E0001776FFF0E786F76
:100920007651796F7A6B7751792778517A237A519A
:100930000AE11A0E795DD8A0A0EF04F0A3EF04F04D
:10094000010EA4EF04F0000E826F836B82518311BD
:10095000D8B4ADEF04F0AFEF04F0BDEF04F0160E25
:10096000AE25046E010EAF21056E220E066E080E36
:10097000076E8AEC24F0C9EF04F0160EAE25046E63
:10098000010EAF21056E2A0E066E080E076E8AEC68
:1009900024F00001FD0E9B27FF0E9C2370C014F075
:1009A00071C015F0160E166E010E176E9BC018F072
:1009B0009CC019F008EC22F014C070F015C071F062
:1009C000F3EF09F0A8C004F0A9C005F0AAC006F032
:1009D000ABC007F057EC20F004500510D8A4F3EF9B
:1009E00004F0F5EF04F035EF05F0BF0E0001776F6E
:1009F000FF0E786F7651796F7A6B7751792778513E
:100A00007A237A510AE11A0E795DD8A00AEF05F02F
:100A10000DEF05F0010E0EEF05F0000E846F856BF3
:100A200084518511D8B417EF05F019EF05F027EFC1
:100A300005F0160EAE25046E010EAF21056E260ED2
:100A4000066E080E076E8AEC24F0C9EF04F0160E4D
:100A5000AE25046E010EAF21056E2E0E066E080E39
:100A6000076E8AEC24F0C9EF04F0000E0001B06FAD
:100A7000000EB16F800EB26F3F0EB36F000EAD6F00
:100A8000000EAC6FA8C004F0A9C005F0AAC006F023
:100A9000ABC007F0000E086E000E096E000E0A6E65
:100AA000000E0B6EC1EC22F0D8B059EF05F05BEFF1
:100AB00005F0DEEF05F07AEF05F0B0C00CF0B1C044
:100AC0000DF0B2C00EF0B3C00FF0000E106E000EAD
:100AD000116E200E126E410E136EADEC11F00CC0B3
:100AE000B0F00DC0B1F00EC0B2F00FC0B3F0000115
:100AF000AC4BAD2BA8C025F0A9C026F0AAC027F0AA
:100B0000ABC028F0000E106E000E116E200E126E9B
:100B1000410E136EB0C00CF0B1C00DF0B2C00EF0BB
:100B2000B3C00FF0ADEC11F00CC029F00DC02AF0ED
:100B30000EC02BF00FC02CF0D5EC1FF0D8B0A3EFF7
:100B400005F0A5EF05F05DEF05F0C5EF05F0B0C0CD
:100B50003DF0B1C03EF0B2C03FF0B3C040F0000E77
:100B6000416E000E426E200E436E410E446EBBEC91
:100B700015F03DC0B0F03EC0B1F03FC0B2F040C093
:100B8000B3F00001AC07D8A0AD07A8C025F0A9C0FC
:100B900026F0AAC027F0ABC028F0B0C029F0B1C041
:100BA0002AF0B2C02BF0B3C02CF0D5EC1FF0D8A0C7
:100BB000DCEF05F0DEEF05F0A7EF05F076C00AF0F8
:100BC0000B6A5AEC24F00A5000019D6F9DC09AF008
:100BD000670E9D19D8A4EFEF05F0F1EF05F017EFC0
:100BE00006F0F551F611D8A4F8EF05F0FAEF05F08C
:100BF000FEEF05F0000EF66F010EF56FF6BF0BEF7E
:100C000006F0F65106E1F505D8B009EF06F00BEF56
:100C100006F011EF06F0000E996F060E986F20EFA8
:100C200006F0F5C098F0F6C099F020EF06F0F6BF98
:100C30001CEF06F01EEF06F00BEF06F011EF06F0CA
:100C4000670E9D19D8A427EF06F029EF06F058EF9C
:100C500006F0ADAF37EF06F0FC0EAC5DFF0EAD5900
:100C6000D8A035EF06F037EF06F056EF06F0FF0E8E
:100C7000776FFF0E786F98C079F099C07AF077514E
:100C8000792778517A23AC51795D7A51800A7B6F4C
:100C9000AD51800A7B59D8A050EF06F052EF06F014
:100CA00056EF06F0660E9A6F58EF06F0650E9A6FD3
:100CB00098C090F099C091F0670E9D19D8A463EF89
:100CC00006F065EF06F075EF06F0660E9A19D8A4E7
:100CD0006CEF06F06EEF06F077EF06F0ADBF75EF44
:100CE00006F073EF06F077EF06F0904B912B660E4F
:100CF0009A19D8A47EEF06F080EF06F0A0EF06F078
:100D0000ADBF87EF06F085EF06F093EF06F0000E1B
:100D1000B06F000EB16F800EB26F3F0EB36F000E5A
:100D2000AD6F000EAC6F670E9D19D8B49AEF06F048
:100D30009CEF06F0A0EF06F0AC519027AD51912347
:100D4000000EA76F000EA66FA8C09EF0A9C09FF06E
:100D5000AAC0A0F0ABC0A1F0B0C07CF0B1C07DF0E3
:100D6000B2C07EF0B3C07FF031EF07F09EC03DF01F
:100D70009FC03EF0A0C03FF0A1C040F0B0C041F025
:100D8000B1C042F0B2C043F0B3C044F0BBEC15F0C8
:100D90003DC056F03EC057F03FC058F040C059F03B
:100DA000F8EC18F056C0A2F057C0A3F058C0A4F059
:100DB00059C0A5F0A2C004F0A3C005F0A4C006F07D
:100DC000A5C007F052EC1FF004C094F005C095F0E8
:100DD0009EC035F09FC036F0A0C037F0A1C038F0FB
:100DE000B0C010F0B1C011F0B2C012F0B3C013F037
:100DF000A2C00CF0A3C00DF0A4C00EF0A5C00FF06F
:100E0000ADEC11F00CC039F00DC03AF00EC03BF063
:100E10000FC03CF00AEC25F035C09EF036C09FF0C4
:100E200037C0A0F038C0A1F0B0C03DF0B1C03EF076
:100E3000B2C03FF0B3C040F0000E416E000E426EF3
:100E4000200E436E410E446EBBEC15F03DC0B0F079
:100E50003EC0B1F03FC0B2F040C0B3F00001A64BBD
:100E6000A72B9051A65DA751800A776F9151800AF8
:100E70007759D8A03EEF07F040EF07F0B6EF06F045
:100E8000B0C00CF0B1C00DF0B2C00EF0B3C00FF0A6
:100E9000000E106E000E116EA00E126E400E136E3C
:100EA000ADEC11F00CC0A2F00DC0A3F00EC0A4F088
:100EB0000FC0A5F09EC025F09FC026F0A0C027F06F
:100EC000A1C028F0A2C029F0A3C02AF0A4C02BF032
:100ED000A5C02CF0D5EC1FF0D8B071EF07F073EF80
:100EE00007F07EEF07F0000E0001A26F000EA36F67
:100EF000000EA46F000EA56FA7EF07F09EC004F0D0
:100F00009FC005F0A0C006F0A1C007F0A2C008F085
:100F1000A3C009F0A4C00AF0A5C00BF0C1EC22F0F8
:100F2000D8A095EF07F097EF07F0A7EF07F00001C3
:100F300094B19DEF07F09FEF07F0A7EF07F0000EC9
:100F4000A26F000EA36F000EA46F000EA56FA8C0C5
:100F500025F0A9C026F0AAC027F0ABC028F0A2C097
:100F600029F0A3C02AF0A4C02BF0A5C02CF04DECB2
:100F70000FF025C09EF026C09FF027C0A0F028C02B
:100F8000A1F07CC0B0F07DC0B1F07EC0B2F07FC0F7
:100F9000B3F0650E00019A19D8B4D1EF07F0D3EF82
:100FA00007F0D9EF07F0ACC092F0ADC093F0DDEFE1
:100FB00007F0000E936F000E926F000E8F6F000E01
:100FC0008E6F000E8D6F000E8C6F000EA76F000EDF
:100FD000A66FD9EF08F09EC03DF09FC03EF0A0C0C4
:100FE0003FF0A1C040F0B0C041F0B1C042F0B2C08B
:100FF00043F0B3C044F0BBEC15F03DC056F03EC02A
:1010000057F03FC058F040C059F0F8EC18F056C007
:10101000A2F057C0A3F058C0A4F059C0A5F0A2C0D8
:1010200004F0A3C005F0A4C006F0A5C007F052EC80
:101030001FF004C094F005C095F05AB822EF08F0F4
:1010400024EF08F042EF08F0000194519511D8A464
:101050002CEF08F02EEF08F042EF08F0670E9D1914
:10106000D8A435EF08F037EF08F042EF08F093BF4F
:101070003EEF08F03CEF08F042EF08F08C4B8D2B70
:101080008DEF08F000018E518F11D8A44AEF08F0BF
:101090004CEF08F076EF08F093BF53EF08F051EFF4
:1010A00008F076EF08F0160EAE25D96E010EAF21CE
:1010B000DA6E2E0EDF6EAE4BAF2B9B07D8A09C07CF
:1010C000000E8F6F010E8E6F76EF08F0160EAE25B4
:1010D000D96E010EAF21DA6E300EDF6EAE4BAF2B44
:1010E0009B07D8A09C078C07D8A08D078C518D1129
:1010F000D8A47DEF08F07FEF08F066EF08F0160E39
:10110000AE25D96E010EAF21DA6E9451300FDF6E2D
:10111000AE4BAF2B9B07D8A09C079EC035F09FC05D
:1011200036F0A0C037F0A1C038F0B0C010F0B1C0A8
:1011300011F0B2C012F0B3C013F0A2C00CF0A3C003
:101140000DF0A4C00EF0A5C00FF0ADEC11F00CC076
:1011500039F00DC03AF00EC03BF00FC03CF00AEC85
:1011600025F035C09EF036C09FF037C0A0F038C0E3
:10117000A1F0B0C03DF0B1C03EF0B2C03FF0B3C08E
:1011800040F0000E416E000E426E200E436E410E86
:10119000446EBBEC15F03DC0B0F03EC0B1F03FC0B6
:1011A000B2F040C0B3F000019207D8A09307A64B5D
:1011B000A72B9051A65DA751800A776F9151800AA5
:1011C0007759D8B0E6EF08F0E8EF08F0F6EF08F04E
:1011D000AFBFF4EF08F0AF5109E14B0EAE5DD8A000
:1011E000F4EF08F0F6EF08F0EBEF07F08E518F11F7
:1011F000D8A4FDEF08F0FFEF08F010EF09F05AA8AF
:1012000004EF09F006EF09F010EF09F0160EAE2515
:10121000D96E010EAF21DA6E2E0EDF6EAE4BAF2B04
:10122000160EAE25D96E010EAF21DA6E000EDF6EFE
:10123000650E9A19D8A41FEF09F021EF09F0CEEF3F
:1012400004F0000EA76F4F0EA66F160EA625D96EDE
:10125000010EA721DA6E000EDF6E000E976F000EF2
:10126000966FADBF38EF09F036EF09F040EF09F0A7
:10127000000E976F010E966FAC6DAD1FD8B0AD2B01
:10128000000E996F020E986F71EF09F0A607D8A0B3
:10129000A707160EA625D96E010EA721DA6EACC0DF
:1012A00004F0ADC005F0000E076E0A0E066E69EC84
:1012B00022F00450300FDF6EACC004F0ADC005F07A
:1012C000000E076E0A0E066EA6EC21F004C0ACF00C
:1012D00005C0ADF000019807D8A099079B07D8A0DA
:1012E0009C07AC51AD11D8A478EF09F07AEF09F062
:1012F00046EF09F099BF87EF09F0995106E198058B
:10130000D8B085EF09F087EF09F046EF09F0A6079E
:10131000D8A0A70796519711D8A491EF09F093EFA1
:1013200009F099EF09F0000E876F2B0E866F9DEF85
:1013300009F0000E876F2D0E866F160EA625D96E4A
:10134000010EA721DA6E86C0DFFF9B07D8A09C079D
:10135000A607D8A0A707BF0E776FFF0E786F76514C
:10136000796F7A6B7751792778517A237A510AE12C
:101370001A0E795DD8A0BFEF09F0C2EF09F0010E97
:10138000C3EF09F0000E8A6F8B6B8A518B11D8A4C2
:10139000CCEF09F0CEEF09F0D4EF09F0000E896F21
:1013A000650E886FD8EF09F0000E896F450E886FC3
:1013B000160EA625D96E010EA721DA6E88C0DFFFB2
:1013C0009B07D8A09C07160EAE25046E010EAF2118
:1013D000056E160EA625066E010EA721076E8AEC75
:1013E00024F0CEEF04F01200B6C0D9FFB7C0DAFF88
:1013F000DECFF6FFDDCFF7FF0800F550250AD8A4B1
:1014000004EF0AF006EF0AF0D0EF0CF0B6C0D9FFF7
:10141000B7C0DAFFDE2A000EDD22000E0001F46FF5
:10142000000EF36FF3C05AF0F4C05BF0F569F66993
:10143000000EC76F000EC66F64EF0AF05A80B6C088
:10144000D9FFB7C0DAFFDE2A000EDD2264EF0AF012
:101450005A821FEF0AF05A841FEF0AF05A861FEFD4
:101460000AF05A881FEF0AF0000EC76F010EC66F10
:1014700064EF0AF0B6C0D9FFB7C0DAFFDECFF6FFDF
:10148000DDCFF7FF0800F550BA6FBB6BBB51000A08
:10149000D8B44DEF0AF034EF0AF0BA51200AD8B4AC
:1014A0002EEF0AF0030AD8B431EF0AF0080AD8B4D4
:1014B0002BEF0AF0060AD8B41EEF0AF01D0AD8B4C2
:1014C00028EF0AF034EF0AF0C651C711D8B46BEF19
:1014D0000AF06DEF0AF03AEF0AF05AA072EF0AF044
:1014E00074EF0AF075EF0AF05A92B6C0D9FFB7C090
:1014F000DAFFDECFF6FFDDCFF7FF0800F5502E0A4A
:10150000D8A485EF0AF087EF0AF005EF0BF0000E84
:10151000F66F000EF56FB6C0D9FFB7C0DAFFDE2A4E
:10152000000EDD22B6C0D9FFB7C0DAFFDECFF6FF6E
:10153000DDCFF7FF0800F5502A0AD8A4A2EF0AF081
:10154000A4EF0AF0C1EF0AF0B6C0D9FFB7C0DAFFC6
:10155000DE2A000EDD22B8C0D9FFB9C0DAFFDFCF26
:10156000BAF0020EDE26DFCFBBF0000EDD22BAC0DD
:10157000D9FFBBC0DAFFDECFF5F0DDCFF6F005EF27
:101580000BF0B6C0D9FFB7C0DAFFDECF0BF0DDCF6E
:101590000CF003EC1AF00BC0F5F00CC0F6F0D8EF2D
:1015A0000AF0B6C0D9FFB7C0DAFFDE2A000EDD228E
:1015B000D00E0001BA6FFF0EBB6FB6C0D9FFB7C027
:1015C000DAFFDECFF6FFDDCFF7FF0800F550BC6F86
:1015D000BD6BBA51BC27BB51BD23BD510AE10A0EF8
:1015E000BC5DD8A0F6EF0AF0F9EF0AF0010EFAEFB1
:1015F0000AF0000EC86FC96BC851C911D8A403EF17
:101600000BF005EF0BF0D1EF0AF0B6C0D9FFB7C071
:10161000DAFFDECFF6FFDDCFF7FF0800F5500A6EE8
:101620000B6A5AEC24F00A500001D06FD051D8B4A4
:101630001CEF0BF01EEF0BF058EF0BF0B6C0D9FF0C
:10164000B7C0DAFFDECFBAF0DDCFBBF0010EBA27AC
:10165000000EBB23BAC0F6FFBBC0F7FF0800F55071
:101660000A6E0B6A5AEC24F00A500001D16FD15176
:10167000D8B43DEF0BF03FEF0BF058EF0BF0B6C0D6
:10168000D9FFB7C0DAFFDECFBAF0DDCFBBF0020E74
:10169000BA27000EBB23BAC0F6FFBBC0F7FF080095
:1016A000F5500A6E0B6A5AEC24F00A500001D26F12
:1016B000B6C0D9FFB7C0DAFFDECFF6FFDDCFF7FF48
:1016C0000800F550640AD8B468EF0BF06AEF0BF02D
:1016D0007CEF0BF0B6C0D9FFB7C0DAFFDECFF6FF64
:1016E000DDCFF7FF0800F550690AD8A47AEF0BF0B8
:1016F0007CEF0BF0BCEF0BF0B6C0D9FFB7C0DAFF40
:10170000DE2A000EDD22B8C0D9FFB9C0DAFFDFCF74
:10171000BAF0020EDE26DFCFBBF0000EDD22BAC02B
:10172000D9FFBBC0DAFFDECFBEF0DDCFBFF0000EC9
:10173000BFBFFF0EC06FC16FC26FC36FC46FC56FF5
:10174000B4C01FF0B5C020F0BEC021F0BFC022F071
:10175000C0C023F0C1C024F0C2C025F0C3C026F031
:10176000C4C027F0C5C028F088EC17F01FC0B4F043
:1017700020C0B5F0EBEF0CF0660ED019D8A4C3EF83
:101780000BF0C5EF0BF005EF0CF0B6C0D9FFB7C0FA
:10179000DAFFDECFF6FFDDCFF7FF0800F5CFD3F09D
:1017A000B6C0D9FFB7C0DAFFDE2A000EDD22B8C00E
:1017B000D9FFB9C0DAFFDFCFBAF0040EDE26DFCFE3
:1017C000BBF0000EDD22BAC0D9FFBBC0DAFFDECF0E
:1017D000CCF0DECFCDF0DECFCEF0DECFCFF0B4C098
:1017E00070F0B5C071F0CCC072F0CDC073F0CEC057
:1017F00074F0CFC075F0D3C076F01BEC04F070C06D
:10180000B4F071C0B5F0EBEF0CF0D00E046E000E2A
:10181000056E320E066E080E076E000E096E020E81
:10182000086ED6EC20F004500510D8A41AEF0CF086
:101830001CEF0CF098EF0CF0B6C0D9FFB7C0DAFF80
:10184000DECFBAF0DDCFBBF0010E0001BA27000EEB
:10185000BB23BAC0F6FFBBC0F7FF0800F5CFD3F03B
:10186000BF0EBA6FFF0EBB6FB6C0D9FFB7C0DAFFAD
:10187000DECFF6FFDDCFF7FF0800F550BC6FBD6B84
:10188000BA51BC27BB51BD23BD510AE11A0EBC5D44
:10189000D8A04DEF0CF050EF0CF0010E51EF0CF012
:1018A000000ECA6FCB6BCA51CB11D8B45AEF0CF0F3
:1018B0005CEF0CF076EF0CF0B8C0D9FFB9C0DAFFDE
:1018C000DFCFBAF0040EDE26DFCFBBF0000EDD2244
:1018D000BAC0D9FFBBC0DAFFDECFCCF0DECFCDF08F
:1018E000DECFCEF0DECFCFF08EEF0CF0B8C0D9FF58
:1018F000B9C0DAFFDFCFBAF0040EDE26DFCFBBF0CF
:10190000000EDD22BAC0D9FFBBC0DAFFDECFCCF0BB
:10191000DECFCDF0DECFCEF0DECFCFF0020EB6C000
:10192000D9FFB7C0DAFFDE26000EDD22EFEF0BF0A5
:10193000B6C0D9FFB7C0DAFFDECFF6FFDDCFF7FFC5
:101940000800F550250AD8A4A8EF0CF0AAEF0CF077
:10195000C2EF0CF0B6C0D9FFB7C0DAFFDE2A000E26
:10196000DD22000E056E250E046EB4C006F0B5C073
:1019700007F041EC21F0000E0001B56F010EB46FCD
:10198000EBEF0CF0B6C0D9FFB7C0DAFFDE2A000ECD
:10199000DD22000E0001B56F000EB46FEBEF0CF00E
:1019A000B6C0D9FFB7C0DAFFDECFF6FFDDCFF7FF55
:1019B0000800F550046E056AB4C006F0B5C007F023
:1019C00041EC21F0B6C0D9FFB7C0DAFFDE2A000E25
:1019D000DD22BBEF0CF0120035C06CF036C06DF0AC
:1019E00037C06EF038C06FF06CC084F06DC085F009
:1019F0006EC086F06FC087F0000E00018415396E4E
:101A0000000E85153A6E800E86153B6E7F0E87158B
:101A10003C6E800E3B1809E17F0E3C1839103A10DD
:101A2000D8A415EF0DF017EF0DF045EF0DF035C010
:101A300010F036C011F037C012F038C013F035C0C6
:101A40000CF036C00DF037C00EF038C00FF0ADEC22
:101A500011F00CC025F00DC026F00EC027F00FC00D
:101A600028F035C029F036C02AF037C02BF038C036
:101A70002CF04DEC0FF025C035F026C036F027C015
:101A800037F028C038F04CEF0FF087BF54EF0DF05F
:101A900087518611851106E18405D8B052EF0DF00B
:101AA00054EF0DF091EF0DF0FF0E8415396EFF0E1F
:101AB00085153A6EFF0E86153B6E7F0E87153C6EC0
:101AC00039503A103B103C10D8A469EF0DF06BEF81
:101AD0000DF075EF0DF035C035F036C036F037C07B
:101AE00037F038C038F04CEF0FF087BF7CEF0DF0C7
:101AF0007AEF0DF091EF0DF0000E0101156F210E40
:101B0000146F250E046E080E056E81EC26F004C0DD
:101B100035F005C036F006C037F007C038F04CEF9E
:101B20000FF0170E396E84C03AF085C03BF086C0C6
:101B30003CF087C03DF03966A0EF0DF0A8EF0DF046
:101B40003D343D323C323B323A32392E9BEF0DF080
:101B50003AC07CF03BC07DF03CC07EF03DC07FF0E1
:101B600000017C517D117E117F11D8A4BAEF0DF0D8
:101B7000BCEF0DF0ECEF0DF0000E686F000E696F1A
:101B8000000E6A6F000E6B6FD1EF0DF0D8908437A6
:101B9000853786378737010E6827000E69236A2349
:101BA0006B2386AFD6EF0DF0D8EF0DF0C6EF0DF03A
:101BB000FF0E6825396EFF0E69213A6EFF0E6A210D
:101BC0003B6EFF0E6B213C6E39507C5F3A507D5B63
:101BD0003B507E5B3C507F5B810E7C27FF0E7D235C
:101BE000FF0E7E23FF0E7F23FF0E8415396EFF0E3E
:101BF00085153A6E7F0E86153B6E000E87153C6E7E
:101C0000000E3910846F000E3A10856F800E3B1065
:101C1000866F000E3C10876F7CA111EF0EF013EF62
:101C20000EF01BEF0EF084518427855185238651D9
:101C30008623875187237F357F337E337D337C3303
:101C40008451842785518523865186238751872394
:101C5000000E646F000E656F000E666F000E676FFA
:101C600064C070F065C071F066C072F067C073F058
:101C7000000E806F000E816F000E826F010E836F69
:101C80008AEF0EF080516425746F81516521756F64
:101C900082516621766F83516721776F7451845D1D
:101CA00075518559765186598751800A396E775119
:101CB000800A3958D8A05FEF0EF061EF0EF07DEF8B
:101CC0000EF080517425646F81517521656F8251CA
:101CD0007621666F83517721676F7451845F7551E8
:101CE000855B7651865B7751875B80517027815188
:101CF0007123825172238351732384518427855128
:101D000085238651862387518723D8908333823356
:101D1000813380338051811182118311D8A493EFD4
:101D20000EF095EF0EF042EF0EF084518511861102
:101D30008711D8B49EEF0EF0A0EF0EF001EF0FF078
:101D4000000E786F000E796F800E7A6F3F0E7B6FFA
:101D500078C025F079C026F07AC027F07BC028F043
:101D6000000E296E000E2A6E800E2B6E3F0E2C6E1A
:101D7000D5EC1FF0D8A0BFEF0EF0C1EF0EF001EFD1
:101D80000FF0000E0001786F000E796F800E7A6FF1
:101D90003F0E7B6F000E256E000E266E800E276EA6
:101DA0003F0E286E78C029F079C02AF07AC02BF057
:101DB0007BC02CF0D5EC1FF0D8B0E1EF0EF0E3EFD4
:101DC0000EF0ECEF0EF0020E00017027000E7123F2
:101DD0007223732301EF0FF0010E00017015396EAD
:101DE000000E71153A6E000E72153B6E000E7315E3
:101DF0003C6E395070273A5071233B5072233C504F
:101E0000732370C039F071C03AF072C03BF073C0F8
:101E10003CF03C343C323B323A323932000E392409
:101E20000001846F000E3A20856F000E3B20866F04
:101E30003F0E3C20876F7CC039F07DC03AF07EC0F9
:101E40003BF07FC03CF0170ED89039363A363B361F
:101E50003C36E82E24EF0FF0395084273A50852382
:101E60003B5086233C50872384C06CF085C06DF0C6
:101E700086C06EF087C06FF06CC078F06DC079F0EE
:101E80006EC07AF06FC07BF078C035F079C036F064
:101E90007AC037F07BC038F012002850800B316ECA
:101EA00028502824336E27AE58EF0FF05AEF0FF06A
:101EB0005BEF0FF033803350D8B461EF0FF063EF76
:101EC0000FF078EF0FF03328D8A469EF0FF06BEF25
:101ED0000FF073EF0FF0000E256E000E266E000E51
:101EE000276E000E286E278E000E286E80EF0FF0F2
:101EF000000E256E000E266E000E276E000E286E58
:101F00002C50800B326E31503218D8B48AEF0FF05B
:101F10008CEF0FF08DEF0FF0318C2C502C24326EA3
:101F20002BAE95EF0FF097EF0FF098EF0FF0328098
:101F30003250D8B49EEF0FF0A0EF0FF0B5EF0FF0D6
:101F40003228D8A4A6EF0FF0A8EF0FF0B0EF0FF0F3
:101F5000000E296E000E2A6E000E2B6E000E2C6EE7
:101F60002B8E000E2C6EBDEF0FF0000E296E000EB2
:101F70002A6E000E2B6E000E2C6E3350325CD8B0E1
:101F8000C4EF0FF0C6EF0FF0EDEF0FF031ACCBEF79
:101F90000FF0CDEF0FF0CFEF0FF0800E311A33C0FE
:101FA00034F032C033F034C032F025C034F029C0F0
:101FB00025F034C029F026C034F02AC026F034C001
:101FC0002AF027C034F02BC027F034C02BF028C0F3
:101FD00034F02CC028F034C02CF0000E346E335096
:101FE00032C02DF02E6A2D5E000E2E5A2EBE02EF4C
:101FF00010F02E5009E11A0E2D5CD8A002EF10F05F
:1020000004EF10F03BEF10F0255026102710281099
:10201000D8A40DEF10F010EF10F0010E11EF10F03A
:10202000000E346E000E256E000E266E000E276E1A
:10203000000E286E32C033F044EF10F034A023EFCE
:1020400010F025EF10F02BEF10F0D890343001098C
:10205000346E2DEF10F0D890343225A032EF10F00E
:1020600034EF10F035EF10F0348E28342832273258
:1020700026322532332A3250335CD8A042EF10F09A
:1020800044EF10F01EEF10F031BC49EF10F04BEFB1
:1020900010F08BEF10F03350D8A451EF10F053EF45
:1020A00010F05DEF10F0000E256E000E266E000E93
:1020B000276E000E286EACEF11F0295025262A500D
:1020C00026222B5027222C50282228A06AEF10F01D
:1020D0006CEF10F018EF11F034A071EF10F073EF07
:1020E00010F079EF10F0D89034300109346E7BEFA6
:1020F00010F0D890343225A080EF10F082EF10F06D
:1021000083EF10F0348E28342832273226322532DD
:10211000332A18EF11F02950255C2A5026582B50ED
:1021200027582850800A2D6E2C50800A2D58D8B080
:102130009CEF10F09EEF10F0C9EF10F02550295CD5
:102140002D6E26502A582E6E27502B582F6E285051
:102150002C58306EFF0E2D24256EFF0E2E20266E7D
:10216000FF0E2F20276EFF0E3020286E800E311AB2
:10217000346C3450D8A4BFEF10F0C1EF10F0D1EFA1
:1021800010F0010E2526000E262227222822D1EF4C
:1021900010F02950255E2A50265A2B50275A2C50D1
:1021A000285A2550261027102810D8A4DAEF10F04E
:1021B000DCEF10F011EF11F03450D8A4E2EF10F082
:1021C000E4EF10F011EF11F0000E256E000E266EF8
:1021D000000E276E000E286EACEF11F0D890253659
:1021E00026362736283634AEF8EF10F0FAEF10F026
:1021F000FBEF10F0258034A000EF11F002EF11F09A
:1022000006EF11F0D880343608EF11F0D89034364C
:102210003350D8B40EEF11F010EF11F011EF11F0B0
:10222000330627AE16EF11F018EF11F0EEEF10F0B5
:10223000000E326E34AE1FEF11F021EF11F039EFC6
:1022400011F034C02DF07F0E2D16D8B42AEF11F006
:102250002CEF11F030EF11F0010E326E39EF11F06A
:1022600025A035EF11F037EF11F039EF11F02CEF19
:1022700011F03250D8B43FEF11F041EF11F06CEF94
:1022800011F0010E2526000E26222722282228A042
:102290004CEF11F04EEF11F06CEF11F025C02DF066
:1022A00026C02EF027C02FF028C030F03034303256
:1022B0002F322E322D322DC025F02EC026F02FC009
:1022C00027F030C028F03328D8B469EF11F06BEF55
:1022D00011F06CEF11F0332A3328D8B472EF11F0FB
:1022E00074EF11F07CEF11F03350D8A47AEF11F0B5
:1022F0007CEF11F08EEF11F0000E256E000E266EB1
:10230000000E276E000E286E3350D8A48AEF11F00D
:102310008CEF11F08EEF11F0000E316E33A093EFC1
:1023200011F095EF11F098EF11F0278E99EF11F061
:10233000279ED8903330286E31AEA1EF11F0A3EF75
:1023400011F0A4EF11F0288E25C025F026C026F04C
:1023500027C027F028C028F012000F50800B186EFD
:102360000F500F241E6E0EAEB8EF11F0BAEF11F041
:10237000BBEF11F01E801E50D8B4C1EF11F0C3EFB7
:1023800011F0D6EF11F01E28D8A4C9EF11F0CBEF51
:1023900011F0D3EF11F0000E0C6E000E0D6E000E5A
:1023A0000E6E000E0F6E0E8EDEEF11F0000E0C6E34
:1023B000000E0D6E000E0E6E000E0F6E1350800B91
:1023C000181A13501324196E12AEE9EF11F0EBEF47
:1023D00011F0ECEF11F019801950D8B4F2EF11F0B0
:1023E000F4EF11F007EF12F01928D8A4FAEF11F06A
:1023F000FCEF11F004EF12F0000E106E000E116EE3
:10240000000E126E000E136E128E0FEF12F0000E01
:10241000106E000E116E000E126E000E136E19502B
:10242000D8B415EF12F017EF12F01FEF12F01E5094
:10243000D8A41DEF12F01FEF12F029EF12F0000EDA
:102440000C6E000E0D6E000E0E6E000E0F6EC1EFC4
:1024500013F012500C02F3CF23F0F4CF24F02350EA
:102460001A6E1B6A1C6A1D6A24501F6E206A216A3C
:10247000226A11500D02F3CF23F0F4CF24F0235041
:102480001A26000E1B221C221D2224501F26000E7D
:1024900020222122222210500E02F3CF23F0F4CF6B
:1024A00024F023501A26000E1B221C221D22245029
:1024B0001F26000E2022212222221CC01DF01BC03C
:1024C0001CF01AC01BF01A6A10500D02F3CF23F053
:1024D000F4CF24F023501A2624501B22000E1C2275
:1024E000000E1D2211500C02F3CF23F0F4CF24F084
:1024F00023501A2624501B22000E1C22000E1D22DF
:102500001CC01DF01BC01CF01AC01BF01A6A105032
:102510000C02F3CF23F0F4CF24F023501A262450DA
:102520001B22000E1C22000E1D2212500D02F3CFA2
:1025300023F0F4CF24F023501F2624502022000E35
:102540002122000E222211500E02F3CF23F0F4CFED
:1025500024F023501F2624502022000E2122000E9A
:10256000222212500E02F3CF23F0F4CF24F0235096
:10257000146E2450156E166A176A16C017F015C02F
:1025800016F014C015F0146A14501F26155020229E
:1025900016502122175022221AC014F01BC015F029
:1025A0001CC016F01DC017F0190EDCEF12F0D89009
:1025B0001732163215321432E82ED7EF12F01450BB
:1025C0001F261550202216502122175022221CC0EF
:1025D0001DF01BC01CF01AC01BF01A6A19501EC057
:1025E00014F0156A1426000E1522820E1424236E90
:1025F000FF0E1520246E12EF13F0D8901F362036F0
:10260000213622361DAE07EF13F009EF13F00AEF63
:1026100013F01F80D8901A361B361C361D36230641
:10262000D8A0240621AE17EF13F019EF13F0FDEF39
:1026300012F0000E196E1DAE20EF13F022EF13F012
:1026400046EF13F0FF0E1A14146EFF0E1B14156ED6
:10265000FF0E1C14166E7F0E1D14176E14501510ED
:1026600016101710D8B437EF13F039EF13F03DEF11
:1026700013F0010E196E46EF13F01FA042EF13F096
:1026800044EF13F046EF13F039EF13F01950D8B4BC
:102690004CEF13F04EEF13F072EF13F0010E1F2604
:1026A000000E20222122222222A059EF13F05BEFFC
:1026B00013F072EF13F01FC014F020C015F021C00A
:1026C00016F022C017F017341732163215321432B2
:1026D00014C01FF015C020F016C021F017C022F062
:1026E000234A242A24BE7DEF13F0245008E1232836
:1026F000D8A07DEF13F07FEF13F089EF13F0000EF9
:102700001F6E000E206E800E216E7F0E226EB7EFC0
:1027100013F024BE96EF13F0245006E12304D8B042
:1027200094EF13F096EF13F0A2EF13F0000E1F6E6C
:10273000000E206E000E216E000E226E000E186E2E
:10274000B7EF13F023C01EF0FF0E1F16FF0E20166A
:102750007F0E2116000E22161EA0B1EF13F0B3EF6C
:1027600013F0B4EF13F0218ED8901E30226E185063
:1027700022121FC00CF020C00DF021C00EF022C0AC
:102780000FF0120088C090F089C091F08AC092F0DA
:102790008BC093F090C0ACF091C0ADF092C0AEF0A1
:1027A00093C0AFF0FF0E0001AC15B06FFF0EAD157A
:1027B000B16FFF0EAE15B26F7F0EAF15B36F800E07
:1027C000B25D3F0EB359D8A0E8EF13F0EAEF13F073
:1027D00054EF14F0800EB21909E13F0EB319B01195
:1027E000B111D8A4F6EF13F0F8EF13F026EF14F0C0
:1027F000DB0E106E0F0E116EC90E126E3F0E136EB1
:1028000088C00CF089C00DF08AC00EF08BC00FF0AC
:10281000ADEC11F00CC025F00DC026F00EC027F075
:102820000FC028F0000E296E000E2A6E800E2B6E4F
:10283000030E2C6E4DEC0FF025C088F026C089F0F9
:1028400027C08AF028C08BF0BAEF15F0000E3D6E5D
:10285000000E3E6E000E3F6E000E406E88C039F0D6
:1028600089C03AF08AC03BF08BC03CF088C035F09C
:1028700089C036F08AC037F08BC038F00AEC25F0FA
:1028800035C041F036C042F037C043F038C044F0A4
:10289000BBEC15F03DC088F03EC089F03FC08AF027
:1028A00040C08BF0BAEF15F03F0EB35DD8B05BEFD0
:1028B00014F05DEF14F0D7EF14F0800EB25D390E16
:1028C000B359D8B066EF14F068EF14F07DEF14F050
:1028D000B35109E1800EB25DD8A071EF14F073EF2F
:1028E00014F07DEF14F088C088F089C089F08AC0A8
:1028F0008AF08BC08BF0BAEF15F088C010F089C059
:1029000011F08AC012F08BC013F088C00CF089C09F
:102910000DF08AC00EF08BC00FF0ADEC11F00CC0C2
:1029200094F00DC095F00EC096F00FC097F094C0D3
:1029300056F095C057F096C058F097C059F063EC28
:102940001DF056C098F057C099F058C09AF059C081
:102950009BF088C010F089C011F08AC012F08BC0C3
:1029600013F098C00CF099C00DF09AC00EF09BC007
:102970000FF0ADEC11F00CC025F00DC026F00EC02C
:1029800027F00FC028F088C029F089C02AF08AC03B
:102990002BF08BC02CF04DEC0FF025C088F026C03A
:1029A00089F027C08AF028C08BF0BAEF15F088C0F4
:1029B00004F089C005F08AC006F08BC007F03DEC3A
:1029C00026F004C039F005C03AF006C03BF007C05D
:1029D0003CF0000E356E000E366E800E376E3F0EE8
:1029E000386E0AEC25F035C00CF036C00DF037C05B
:1029F0000EF038C00FF0000E106E000E116E000EBB
:102A0000126E3F0E136EADEC11F00CC0A8F00DC0AD
:102A1000A9F00EC0AAF00FC0ABF0A8C035F0A9C055
:102A200036F0AAC037F0ABC038F0ECEC0CF035C093
:102A3000A4F036C0A5F037C0A6F038C0A7F0A8C0F3
:102A400056F0A9C057F0AAC058F0ABC059F063ECDB
:102A50001DF056C09CF057C09DF058C09EF059C064
:102A60009FF0A4C029F0A5C02AF0A6C02BF0A7C0F3
:102A70002CF0A4C010F0A5C011F0A6C012F0A7C0A1
:102A800013F09CC00CF09DC00DF09EC00EF09FC0D6
:102A90000FF0ADEC11F00CC025F00DC026F00EC00B
:102AA00027F00FC028F04DEC0FF025C0A0F026C095
:102AB000A1F027C0A2F028C0A3F0DB0E356E0F0EE8
:102AC000366EC90E376E3F0E386E000E106E000E59
:102AD000116E000E126E400E136EA0C00CF0A1C05D
:102AE0000DF0A2C00EF0A3C00FF0ADEC11F00CC0C1
:102AF00039F00DC03AF00EC03BF00FC03CF00AECCC
:102B000025F035C088F036C089F037C08AF038C06B
:102B10008BF0ACC08CF0ADC08DF0AEC08EF0AFC00D
:102B20008FF0200E9AEF15F00001D8908F338E337E
:102B30008D338C33E82E94EF15F08C518D118E115E
:102B40008F11D8B4A6EF15F0A8EF15F073EF14F0BD
:102B500088C004F089C005F08AC006F08BC007F079
:102B600006EC26F004C088F005C089F006C08AF0A3
:102B700007C08BF012004050800B4D6E4050402437
:102B8000546E3FAEC6EF15F0C8EF15F0C9EF15F063
:102B900054805450D8B4CFEF15F0D1EF15F0E6EFD4
:102BA00015F05428D8A4D7EF15F0D9EF15F0E1EFC0
:102BB00015F0000E3D6E000E3E6E000E3F6E000ED4
:102BC000406E3F8E000E406EEEEF15F0000E3D6E33
:102BD000000E3E6E000E3F6E000E406E4450800BA5
:102BE0004D1A44504424556E43AEF9EF15F0FBEFF7
:102BF00015F0FCEF15F055805550D8B402EF16F0E3
:102C000004EF16F019EF16F05528D8A40AEF16F0C5
:102C10000CEF16F014EF16F0000E416E000E426E2F
:102C2000000E436E000E446E438E000E446E21EF84
:102C300016F0000E416E000E426E000E436E000E46
:102C4000446E4150421043104410D8A42AEF16F0AD
:102C50002CEF16F044EF16F0000E3D6E000E3E6EA7
:102C6000000E3F6E000E406E800E3F127F0E40122F
:102C70004D5040123DC03DF03EC03EF03FC03FF0E1
:102C800040C040F087EF17F05450D8A44AEF16F038
:102C90004CEF16F056EF16F0000E3D6E000E3E6E35
:102CA000000E3F6E000E406E87EF17F0555054C077
:102CB00045F0466A455E000E465A7F0E45244E6E2C
:102CC000000E46204F6E3DC049F03EC04AF03FC066
:102CD0004BF040C04CF0000E3D6E000E3E6E000EFC
:102CE0003F6E000E406E000E506E000E516E000ED4
:102CF000526E000E536E000E556EB7EF16F0555023
:102D0000D8B485EF16F087EF16F09EEF16F0D89046
:102D100049364A364B364C36D8903D363E363F36ED
:102D2000403653AE96EF16F098EF16F099EF16F086
:102D30003D80D89050365136523653364150495C1A
:102D400042504A5843504B5844504C58D8A0ABEFCF
:102D500016F0ADEF16F0B6EF16F0538C4150495E09
:102D600042504A5A43504B5A44504C5A552A190E15
:102D70005564BDEF16F0BFEF16F07FEF16F0495027
:102D80004A104B104C10D8B4C8EF16F0CAEF16F02A
:102D9000E2EF16F05080E2EF16F0D8903D363E3666
:102DA0003F36403653AED7EF16F0D9EF16F0DAEFD4
:102DB00016F03D80D89050365136523653364E0676
:102DC000D8A04F063FAEE7EF16F0E9EF16F0CDEFD3
:102DD00016F0000E556E53AEF0EF16F0F2EF16F04F
:102DE00016EF17F0FF0E5014456EFF0E5114466E8D
:102DF000FF0E5214476E7F0E5314486E4550461016
:102E000047104810D8B407EF17F009EF17F00DEF8F
:102E100017F0010E556E16EF17F03DA012EF17F0E8
:102E200014EF17F016EF17F009EF17F05550D8B45C
:102E30001CEF17F01EEF17F042EF17F0010E3D26C2
:102E4000000E3E223F22402240A029EF17F02BEF38
:102E500017F042EF17F03DC045F03EC046F03FC0CE
:102E600047F040C048F04834483247324632453295
:102E700045C03DF046C03EF047C03FF048C040F07E
:102E80004E4A4F2A4FBE4DEF17F04F5008E14E28E3
:102E9000D8A04DEF17F04FEF17F05AEF17F0000ED4
:102EA0004F6E4E68000E3D6E000E3E6E000E3F6E81
:102EB000000E406E4FBE67EF17F04F5006E14E0414
:102EC000D8B065EF17F067EF17F075EF17F0000E49
:102ED0004F6E000E4E6E000E3D6E000E3E6E000EEA
:102EE0003F6E000E406E000E4D6E4EC054F054A06A
:102EF0007CEF17F07EEF17F081EF17F03F8E82EF37
:102F000017F03F9ED8905430406E38EF16F0120004
:102F100021C039F022C03AF023C03BF024C03CF07D
:102F200025C03DF026C03EF027C03FF028C040F04D
:102F300040BE9DEF17F0A0EF17F0010EA1EF17F0C4
:102F4000000E376E386A37503810D8B4AAEF17F031
:102F5000ACEF17F0BCEF17F0401E3F1E3E1E3D1EAB
:102F60003C1E3B1E3A1E396C000E3A223B223C228C
:102F70003D223E223F2240220001F6BFC2EF17F061
:102F8000C4EF17F0C5EF17F05A92F6BFD2EF17F063
:102F9000F65106E1F505D8B0D0EF17F0D2EF17F0F3
:102FA000D8EF17F0000E346E010E336EDCEF17F021
:102FB000F5C033F0F6C034F0F3C035F0F4C036F0AD
:102FC00037503810D8A4E7EF17F0E9EF17F0F0EF1B
:102FD00017F05AA4EEEF17F0F0EF17F0F3EF17F039
:102FE0003506D8A03606000E426E4F0E416E000E1A
:102FF0000101656F78EF18F04106D8A04206160E61
:103000004124D96E010E4220DA6E39C004F03AC074
:1030100005F03BC006F03CC007F03DC008F03EC0E4
:1030200009F03FC00AF040C00BF00A0E0C6E000E13
:103030000D6E000E0E6E000E0F6E000E106E000E66
:10304000116E000E126E000E136E1CEC1EF004C00A
:1030500029F005C02AF006C02BF007C02CF008C0EC
:103060002DF009C02EF00AC02FF00BC030F029C09F
:1030700016F02BC017F091EC25F01650300FDF6ED4
:103080003306D8A034063506D8A0360639C004F079
:103090003AC005F03BC006F03CC007F03DC008F068
:1030A0003EC009F03FC00AF040C00BF00A0E0C6EA3
:1030B000000E0D6E000E0E6E000E0F6E000E106EE6
:1030C000000E116E000E126E000E136E9FEC1CF0BF
:1030D00004C039F005C03AF006C03BF007C03CF030
:1030E00008C03DF009C03EF00AC03FF00BC040F000
:1030F00042BE83EF18F0425008E14104D8A083EFAC
:1031000018F085EF18F0B5EF18F039503A103B1071
:103110003C103D103E103F104010D8A492EF18F024
:1031200094EF18F0FCEF17F034BEA1EF18F0345014
:1031300006E13304D8B09FEF18F0A1EF18F0FCEFD0
:1031400017F036BEACEF18F0365008E13504D8A0C1
:10315000ACEF18F0AEEF18F0B5EF18F05AB2B3EFCD
:1031600018F0B5EF18F0FCEF17F037503810D8A46E
:10317000BCEF18F0BEEF18F0C5EF18F05AA4C3EF7B
:1031800018F0C5EF18F0E3EF18F04106D8A042069A
:1031900037503810D8A4CFEF18F0D1EF18F0D7EF90
:1031A00018F0000E326E2B0E316EDBEF18F0000EB1
:1031B000326E2D0E316E160E4124D96E010E422054
:1031C000DA6E31C0DFFF1FC014F020C015F0160EFC
:1031D0004124166E010E4220176E35C018F036C01D
:1031E00019F008EC22F014C01FF015C020F01200F6
:1031F00000C16CF001C16DF002C16EF003C16FF04F
:1032000056C06CF057C06DF058C06EF059C06FF0EA
:10321000810E0001606FFF0E616F6CC062F06DC0C7
:1032200063F06EC064F06FC065F0180E1DEF19F00A
:10323000D8906533643363336233E82E18EF19F0A6
:10324000625160256A6F000E61216B6F6BBF32EFB8
:1032500019F06B5109E1170E6A5DD8A032EF19F031
:1032600034EF19F03EEF19F056C056F057C057F042
:1032700058C058F059C059F002EF1AF06BBF43EF35
:1032800019F045EF19F0B6EF19F06AC060F0FF0EC3
:10329000616FFF0E626F7F0E636F000E646F606779
:1032A00054EF19F05CEF19F0643564336333623323
:1032B0006133602F4FEF19F061C066F062C067F0B4
:1032C00063C068F064C069F0000166516C15606FFE
:1032D00067516D15616F68516E15626F69516F1599
:1032E000636F6051611162116311D8A47AEF19F014
:1032F0007CEF19F07EEF19F034EF19F06CC060F03C
:103300006DC061F06EC062F06FC063F0200E8EEF92
:1033100019F0D8906333623361336033E82E89EF5C
:1033200019F06051611162116311D8B49AEF19F06C
:103330009CEF19F0A4EF19F066516C2767516D23CB
:1033400068516E2369516F23661D606F671D616F41
:10335000681D626F691D636F60516C1761516D1755
:1033600062516E1763516F17FAEF19F06CC060F07D
:103370006DC061F06EC062F06FC063F0200EC6EFEA
:1033800019F0D8906333623361336033E82EC1EFB4
:1033900019F06051611162116311D8A4D2EF19F0D4
:1033A000D4EF19F0DEEF19F0000E6C6F000E6D6FA8
:1033B000000E6E6F000E6F6FFAEF19F0D8906C353B
:1033C000606F6D35616F6E35626F6F35636F605121
:1033D000611162116311D8B4F0EF19F0F2EF19F036
:1033E000FAEF19F0000E6C6F000E6D6F800E6E6FAD
:1033F000BF0E6F6F6CC056F06DC057F06EC058F0C6
:103400006FC059F01200000E196E000E186E000EFB
:10341000126E000E116E0FEF1AF00B4A0C2A010EFD
:10342000176E0BC0F6FF0CC0F7FFF86A070EF764C3
:1034300003D00800F55005D0F6CFE1FFF7CFE2FF4B
:10344000E750200AD8B427EF1AF029EF1AF050EF0E
:103450001AF0F70E0D6EFF0E0E6E0BC0F6FF0CC0CD
:10346000F7FFF86A070EF76403D00800F55005D09F
:10347000F6CFE1FFF7CFE2FFE7500F6E106A0D5075
:103480000F260E501022105009E1050E0F5CD8A037
:103490004CEF1AF04EEF1AF050EF1AF0000E176EC4
:1034A00017C013F0146A13501410D8A45AEF1AF06E
:1034B0005CEF1AF00DEF1AF066EF1AF0000E126EC4
:1034C000010E116E0B4A0C2AB1EF1AF00BC0F6FF79
:1034D0000CC0F7FFF86A070EF76403D00800F55038
:1034E00005D0F6CFE1FFF7CFE2FFE7500D6E0E6A91
:1034F0000E50000AD8B47FEF1AF0B1EF1AF00D5059
:103500002B0AD8B462EF1AF0060AD8B45EEF1AF0AC
:10351000B1EF1AF018C004F019C005F0000E076EE4
:103520000A0E066E6EEC26F00BC0F6FF0CC0F7FF1D
:10353000F86A070EF76403D00800F55005D0F6CFFF
:10354000E1FFF7CFE2FFE7500D6E0D50045E000E75
:10355000055A300E0424186E000E0520196E62EF15
:103560001AF0D00E0D6EFF0E0E6E0BC0F6FF0CC0E3
:10357000F7FFF86A070EF76403D00800F55005D08E
:10358000F6CFE1FFF7CFE2FFE7500F6E106A0D5064
:103590000F260E50102210500AE10A0E0F5CD8A020
:1035A000D4EF1AF0D7EF1AF0010ED8EF1AF0000E90
:1035B000156E166A15501610D8A4E1EF1AF0E3EF55
:1035C0001AF08AEF1AF011501210D8A4EAEF1AF08C
:1035D000ECEF1AF0FAEF1AF018C00DF019C00EF067
:1035E0000D1E0E1E0D4A0E2A0DC00BF00EC00CF063
:1035F000FEEF1AF018C00BF019C00CF012000C6EA0
:103600000C50D8B406EF1BF008EF1BF02AEF1BF0AC
:1036100007BE0FEF1BF00DEF1BF02AEF1BF004C0ED
:1036200008F005C009F006C00AF007C00BF0081E3C
:10363000091E0A1E0B1E082A000E09220A220B224E
:1036400008C00EF009C00FF00AC010F00BC011F056
:1036500032EF1BF004C00EF005C00FF006C010F0F2
:1036600007C011F00450051006100710D8A43BEF56
:103670001BF03DEF1BF047EF1BF0000E046E000E39
:10368000056E000E066E000E076ED8EF1BF0960E4C
:103690000D6E51EF1BF00D2AD890113210320F32FF
:1036A0000E32000E0E14086E000E0F14096E000E7E
:1036B00010140A6EFE0E11140B6E085009100A1039
:1036C0000B10D8A466EF1BF068EF1BF04BEF1BF05C
:1036D00076EF1BF00D2A010E0E26000E0F2210228F
:1036E0001122D890113210320F320E32000E0E1409
:1036F000086E000E0F14096E000E10140A6EFF0EF5
:1037000011140B6E085009100A100B10D8A48BEF7F
:103710001BF08DEF1BF06AEF1BF095EF1BF00D0611
:10372000D8900E360F361036113610BE9AEF1BF0B9
:103730009CEF1BF0A4EF1BF0020E0D60A2EF1BF03C
:10374000A4EF1BF08FEF1BF00DB0A9EF1BF0ABEF58
:103750001BF0ACEF1BF0109ED8900D320DC008F09E
:10376000096A0A6A0B6A08C00BF00A6A096A086AE1
:1037700008500E1209500F120A5010120B5011125D
:103780000C50D8B4C6EF1BF0C8EF1BF0D0EF1BF005
:1037900007BECFEF1BF0CDEF1BF0D0EF1BF0118E6B
:1037A0000EC004F00FC005F010C006F011C007F005
:1037B00012000F0EC16EB0EC26F0F2EC26F0BCEC5D
:1037C00026F068EC23F0F28EF28C000E0101806F7F
:1037D000000E7F6FAB8816EC23F01AC07FF11BC080
:1037E00080F1AB98CEEC1EF0B4C07BF1B5C07CF19B
:1037F000B6C07DF1B7C07EF17FC104F080C105F095
:10380000000E05BEFF0E066E076E010EFFEC1AF0ED
:1038100004C035F005C036F006C037F007C038F0F8
:103820007BC139F07CC13AF07DC13BF07EC13CF0F8
:103830000AEC25F035C010F136C011F137C012F195
:1038400038C013F110C10CF011C10DF012C10EF00F
:1038500013C10FF09A0E106E990E116E990E126E22
:10386000BE0E136EADEC11F00CC00CF10DC00DF1DD
:103870000EC00EF10FC00FF10CC104F00DC105F028
:103880000EC106F00FC107F052EC1FF00001F95114
:103890000424F96FFA510520FA6FFABF59EF1CF0B2
:1038A000FA5109E1640EF95DD8A059EF1CF05BEF05
:1038B0001CF061EF1CF0000EFA6F630EF96F73EFEE
:1038C0001CF0FABF6FEF1CF0FA5107E1230EF95D0F
:1038D000D8B06DEF1CF06FEF1CF073EF1CF0000E12
:1038E000FA6F230EF96F660EDC6F010EDD6F190E95
:1038F000DE6F080EDF6F7BC1E0F07CC1E1F07DC1BF
:10390000E2F07EC1E3F07FC1E4F080C1E5F0B8EC05
:1039100024F0660E056E010E066E71EC25F00A0E9F
:10392000C8EC26F00B0E0001F06F620EE82EFED7F9
:10393000F02FFCD700F0E5EF1BF007EF00F0000ED2
:10394000156E13BEA8EF1CF0A6EF1CF0BAEF1CF02A
:10395000131E121E111E101E0F1E0E1E0D1E0C6CAD
:10396000000E0D220E220F221022112212221322EB
:10397000010E156E0BBEC1EF1CF0BFEF1CF0D3EFB4
:103980001CF00B1E0A1E091E081E071E061E051E21
:10399000046C000E052206220722082209220A22B0
:1039A0000B22010E151A20EE16F0070EDE6AE8064D
:1039B000FDE20C500D100E100F101010111012100F
:1039C0001310D8B4E6EF1CF0E8EF1CF03AEF1DF04E
:1039D000010E146EF6EF1CF0D8900C360D360E3634
:1039E0000F361036113612361336142A13AEFBEF8B
:1039F0001CF0FDEF1CF0ECEF1CF0D89016361736DB
:103A0000183619361A361B361C361D360C50045C17
:103A10000D5005580E5006580F50075810500858B2
:103A20001150095812500A5813500B58D8A01BEFC8
:103A30001DF01DEF1DF02EEF1DF00C50045E0D501B
:103A4000055A0E50065A0F50075A1050085A115076
:103A5000095A12500A5A13500B5A1680D890133232
:103A60001232113210320F320E320D320C32142E4D
:103A7000FDEF1CF01550D8B440EF1DF042EF1DF0E3
:103A800052EF1DF01D1E1C1E1B1E1A1E191E181E95
:103A9000171E166C000E1722182219221A221B223A
:103AA0001C221D2216C004F017C005F018C006F035
:103AB00019C007F01AC008F01BC009F01CC00AF0BA
:103AC0001DC00BF01200BA0E296E130E2A6E2F0EB7
:103AD0002B6EBD0E2C6E6B0E106ED30E116E0D0E76
:103AE000126EBC0E136E56C00CF057C00DF058C0CD
:103AF0000EF059C00FF0ADEC11F00CC025F00DC068
:103B000026F00EC027F00FC028F04DEC0FF025C0B6
:103B100068F026C069F027C06AF028C06BF0750E07
:103B2000296EAA0E2A6E2A0E2B6E3E0E2C6E56C0E1
:103B300010F057C011F058C012F059C013F068C00F
:103B40000CF069C00DF06AC00EF06BC00FF0ADEC68
:103B500011F00CC025F00DC026F00EC027F00FC0EC
:103B600028F04DEC0FF025C06CF026C06DF027C09A
:103B70006EF028C06FF06CC00CF06DC00DF06EC020
:103B80000EF06FC00FF056C010F057C011F058C0C3
:103B900012F059C013F0ADEC11F00CC060F00DC084
:103BA00061F00EC062F00FC063F0AE0E106EE50E55
:103BB000116E340E126EBF0E136E56C00CF057C04D
:103BC0000DF058C00EF059C00FF0ADEC11F00CC064
:103BD00025F00DC026F00EC027F00FC028F0000E13
:103BE000296E000E2A6E800E2B6E3F0E2C6E4DEC51
:103BF0000FF025C064F026C065F027C066F028C02D
:103C000067F060C03DF061C03EF062C03FF063C04D
:103C100040F064C041F065C042F066C043F067C048
:103C200044F0BBEC15F03DC056F03EC057F03FC02D
:103C300058F040C059F01200000E156E0BBE25EF73
:103C40001EF023EF1EF037EF1EF00B1E0A1E091E9A
:103C5000081E071E061E051E046C000E0522062205
:103C60000722082209220A220B22010E156E13BE1A
:103C70003EEF1EF03CEF1EF04EEF1EF0131E121E24
:103C8000111E101E0F1E0E1E0D1E0C6C000E0D229E
:103C90000E220F2210221122122213220C500D107C
:103CA0000E100F101010111012101310D8B45BEF7B
:103CB0001EF05DEF1EF0A5EF1EF0010E146E6BEF0F
:103CC0001EF0D8900C360D360E360F3610361136E3
:103CD00012361336142A13AE70EF1EF072EF1EF078
:103CE00061EF1EF00C50045C0D5005580E50065844
:103CF0000F500758105008581150095812500A58C0
:103D000013500B58D8A087EF1EF089EF1EF099EFE3
:103D10001EF00C50045E0D50055A0E50065A0F50FE
:103D2000075A1050085A1150095A12500A5A135083
:103D30000B5AD89013321232113210320F320E3227
:103D40000D320C32142E72EF1EF01550D8B4ABEFBA
:103D50001EF0ADEF1EF0BDEF1EF00B1E0A1E091E79
:103D6000081E071E061E051E046C000E05220622F4
:103D70000722082209220A220B2204C004F005C0EF
:103D800005F006C006F007C007F008C008F009C03B
:103D900009F00AC00AF00BC00BF01200D00E4FEC75
:103DA00025F03D0E92EC26F0D3EC26F0D10E57EC28
:103DB00026F0000EB1EC25F00001B86FB851BA6FD3
:103DC000B96B010EB1EC25F00001BB6FBB51B9110D
:103DD000C46FBA51C56FD3EC26F0C4C004F0C5C09F
:103DE00005F0000E05BEFF0E066E076E010EFFEC1D
:103DF0001AF004C03DF005C03EF006C03FF007C019
:103E000040F0000E416E000E426E800E436E460E74
:103E1000446EBBEC15F03DC0BCF03EC0BDF03FC0F1
:103E2000BEF040C0BFF0BCC088F0BDC089F0BEC0CD
:103E30008AF0BFC08BF0C2EC13F088C0C0F089C01C
:103E4000C1F08AC0C2F08BC0C3F0000E106E000E2D
:103E5000116E340E126E430E136EC0C00CF0C1C052
:103E60000DF0C2C00EF0C3C00FF0ADEC11F00CC0ED
:103E70003DF00DC03EF00EC03FF00FC040F0DB0E35
:103E8000416E0F0E426E490E436E400E446EBBEC07
:103E900015F03DC0B4F03EC0B5F03FC0B6F040C034
:103EA000B7F01200063407340D6E0D50D8A45BEF46
:103EB0001FF05DEF1FF067EF1FF0000E046E000EA5
:103EC000056E000E066E000E076ED4EF1FF004C0E4
:103ED00008F005C009F006C00AF007C00BF0200E7C
:103EE00077EF1FF0D8900B320A3209320832E82EF1
:103EF00072EF1FF008500C6E068EFF0E0416FF0EB8
:103F00000516FF0E0616000E0716960E0D5E0DBE68
:103F10008EEF1FF08CEF1FF0A4EF1FF00D50800A02
:103F2000970FD8B096EF1FF098EF1FF09AEF1FF0A1
:103F30005DEF1FF0D89007320632053204320D3E95
:103F40009AEF1FF0BCEF1FF01F0E0D64AAEF1FF0D9
:103F5000ACEF1FF0B4EF1FF05DEF1FF0D890043608
:103F60000536063607360D060D50D8A4BAEF1FF0F9
:103F7000BCEF1FF0AEEF1FF00C50D8B4C2EF1FF033
:103F8000C4EF1FF0CCEF1FF0071E061E051E046CC9
:103F9000000E05220622072204C004F005C005F029
:103FA00006C006F007C007F01200000E25142D6EA3
:103FB000000E26142E6E800E27142F6E7F0E2814EE
:103FC000306E2D502E102F103010D8A4EAEF1FF0B5
:103FD000ECEF1FF0F4EF1FF0000E256E000E266EC2
:103FE000000E276E000E286E000E29142D6E000E96
:103FF0002A142E6E800E2B142F6E7F0E2C14306E12
:104000002D502E102F103010D8A409EF20F00BEFF8
:1040100020F013EF20F0000E296E000E2A6E000E25
:104020002B6E000E2C6E28AE18EF20F01AEF20F049
:1040300023EF20F0256C261ED8B0262A271ED8B0E4
:10404000272A800E28562CAE28EF20F02AEF20F0E9
:1040500033EF20F0296C2A1ED8B02A2A2B1ED8B0A4
:104060002B2A800E2C56000E251A000E261A000E42
:10407000271A800E281A000E291A000E2A1A000E7E
:104080002B1A800E2C1A2950255C2A5026582B50AA
:1040900027582C502858D8B050EF20F052EF20F07D
:1040A00055EF20F0D89056EF20F0D880120008C1CC
:1040B0000EF009C10FF00AC110F00BC111F004C0DD
:1040C0000EF005C00FF006C010F007C011F00EC0D2
:1040D00008F00FC009F010C00AF011C00BF0180E64
:1040E00077EF20F0D8900B320A3209320832E82EEE
:1040F00072EF20F008500C6E0D6A0C500D10D8A411
:1041000084EF20F086EF20F0A6EF20F0D8900E3458
:10411000086E0F34096E10340A6E11340B6E08509D
:1041200009100A100B10D8A498EF20F09AEF20F095
:10413000A0EF20F0000E056E020E046ED5EF20F009
:10414000000E056E030E046ED5EF20F00C280D1046
:10415000D8A4ADEF20F0AFEF20F0D1EF20F00EC0EB
:1041600008F00FC009F010C00AF011C00BF0090EE2
:10417000D890083609360A360B36E82EB8EF20F00C
:10418000085009100A100B10D8B4C9EF20F0CCEF7A
:1041900020F0010ECDEF20F0000E046E056AD5EF81
:1041A00020F0000E056E040E046E120004C00BF029
:1041B00005C00CF006C00DF007C00EF00806D8A030
:1041C0000906082806E10928D8A4E9EF20F0EBEF5A
:1041D00020F0F8EF20F0000E056E000E046E40EFA8
:1041E00021F00B4A0C2A0D4A0E2A0806D8A009060F
:1041F0000BC0D9FF0CC0DAFFDF50D8B402EF21F0BA
:1042000004EF21F02FEF21F00DC0F6FF0EC0F7FFF5
:104210000800F5500009D8B410EF21F012EF21F09A
:104220002FEF21F008500910D8B419EF21F01BEF3F
:1042300021F02FEF21F00BC0D9FF0CC0DAFFDF50C7
:104240000A6E0DC0F6FF0EC0F7FF0800F5500A1801
:10425000D8B42DEF21F02FEF21F0F1EF20F00BC0BB
:10426000D9FF0CC0DAFFDF500A6E0DC0F6FF0EC09A
:10427000F7FF0800F5500A5C046E056AD8A0050631
:10428000120006500710D8B448EF21F04AEF21F091
:1042900053EF21F006500710D8A451EF21F053EF4F
:1042A00021F058EF21F0045007EC27F0A5EF21F0A2
:1042B00020EE04F00650D9260750DA22DE50DE1038
:1042C000D8B465EF21F067EF21F082EF21F020EE06
:1042D00004F00650D9260750DA2210EE02F00650FC
:1042E000E1260750E222DE50E65CE650800A0C6EC2
:1042F000DE50800A0C58D8B080EF21F082EF21F018
:10430000A5EF21F020EE02F00650D9260750DA2260
:10431000DECF08F0DDCF09F006C0D9FF07C0DAFF15
:10432000DECF0AF0DDCF0BF008500A24D96E095019
:104330000B20DA6E04C0DFFF20EE02F00650D92613
:104340000750DA22DE2A000EDD221200000E096E6E
:1043500007BEAFEF21F0ADEF21F0B5EF21F0066C15
:10436000071ED8B0072A010E096E05BEBCEF21F06A
:10437000BAEF21F0C2EF21F0046C051ED8B0052A77
:10438000010E091A000E0B6E000E0A6E0650071081
:10439000D8B4CDEF21F0CFEF21F0F7EF21F0010EEF
:1043A000086ED7EF21F0D89006360736082A07AEF8
:1043B000DCEF21F0DEEF21F0D3EF21F0D8900A36C8
:1043C0000B360650045C07500558D8A0EAEF21F0E0
:1043D000ECEF21F0F1EF21F00650045E0750055A92
:1043E0000A80D89007320632082EDEEF21F00950FD
:1043F000D8B4FDEF21F0FFEF21F003EF22F00A6CBB
:104400000B1ED8B00B2A0AC004F00BC005F0120036
:104410005AA00DEF22F00FEF22F019EF22F016C094
:104420000DF017C00EF014C00FF015C010F02DECF9
:1044300025F019BE1EEF22F020EF22F026EF22F029
:1044400018C01DF019C01EF02AEF22F0000E1E6EDB
:10445000000E1D6E000E1C6E000E1B6E3CEF22F057
:10446000000E056E200E046E14C006F015C007F095
:1044700041EC21F01B4A1C2A1D501B5C1C50800A79
:104480001A6E1E50800A1A58D8A049EF22F04BEF3E
:1044900022F030EF22F05AB050EF22F052EF22F02B
:1044A0005CEF22F016C00DF017C00EF014C00FF034
:1044B00015C010F02DEC25F016C004F017C005F063
:1044C00022EC26F01D500424146E1E500520156E9B
:1044D0001200000E096E05BE72EF22F070EF22F09E
:1044E00078EF22F0046C051ED8B0052A010E096E83
:1044F00007BE7FEF22F07DEF22F083EF22F0066C03
:10450000071ED8B0072A06500710D8B48AEF22F049
:104510008CEF22F0B0EF22F0010E086E94EF22F043
:10452000D89006360736082A07AE99EF22F09BEF9F
:1045300022F090EF22F00650045C07500558D8A0F6
:10454000A4EF22F0A6EF22F0AAEF22F00650045EBC
:104550000750055AD89007320632082E9BEF22F0FA
:104560000950D8B4B6EF22F0B8EF22F0BCEF22F039
:10457000046C051ED8B0052A04C004F005C005F07F
:104580001200000E04140C6E000E05140D6E800E49
:1045900006140E6E7F0E07140F6E0C500D100E10C9
:1045A0000F10D8A4D6EF22F0D8EF22F0E0EF22F0DF
:1045B000000E046E000E056E000E066E000E076EF5
:1045C000000E08140C6E000E09140D6E800E0A14F5
:1045D0000E6E7F0E0B140F6E0C500D100E100F1080
:1045E000D8A4F5EF22F0F7EF22F0FFEF22F0000E53
:1045F000086E000E096E000E0A6E000E0B6E08505B
:1046000004180FE1095005180CE10A50061809E1D9
:104610000B500718D8B40FEF23F011EF23F014EF6D
:1046200023F0D89015EF23F0D8801200000E206EF2
:10463000000E1F6E030E1E6E200E1D6E54EF23F033
:104640009EAA25EF23F027EF23F031EF23F0750E1C
:104650001F24D96E010E2020DA6EAECFDFFF1F4A75
:10466000202A1D06D8A01E06740E1F24D96E010E26
:104670002020DA6E0D0EDE18D8B441EF23F043EFA0
:1046800023F05DEF23F0740E1F24D96E010E20205D
:10469000DA6E0A0EDE18D8A450EF23F052EF23F0A2
:1046A00054EF23F05DEF23F01D501E10D8A45BEFF4
:1046B00023F05DEF23F020EF23F0750E0B6E010E5B
:1046C0000C6E03EC1AF00BC01AF00CC01BF01200B9
:1046D000040E076E0C0E066E340EE82EFED7062E64
:1046E000FCD7072EFAD7D00E4FEC25F0190E92EC1E
:1046F00026F0070E92EC26F0D3EC26F0D00E4FEC0D
:1047000025F06B0E92EC26F0010E92EC26F0D3EC25
:1047100026F0D00E4FEC25F01A0E92EC26F0000E8B
:1047200092EC26F0D3EC26F0D00E4FEC25F01C0EC8
:1047300092EC26F0000E92EC26F0D3EC26F0D00E90
:104740004FEC25F01B0E92EC26F0180E92EC26F0A2
:10475000D3EC26F0D00E4FEC25F0380E92EC26F07C
:10476000010E92EC26F0D3EC26F012000001F74B7C
:10477000F82BF8BFBEEF23F0C0EF23F0D2EF23F009
:10478000F751015C0250800A036EF851800A035809
:10479000D8A0CDEF23F0CFEF23F0D2EF23F0818A22
:1047A000F7EF23F0F751015C0250800A036EF851D5
:1047B000800A0358D8B0DFEF23F0E1EF23F0F3EFE6
:1047C00023F0F8BFEFEF23F0D00EF75D020EF8599B
:1047D000D8B0EDEF23F0EFEF23F0F3EF23F0000E6E
:1047E000816EF7EF23F0000EF86F000EF76F1200E6
:1047F000080EF66E4E0EF76E000EF86E01EE81F0AA
:1048000010EE04F00900F5CFEEFFE550E150FAE1BB
:104810000C0EF66E4E0EF76E000EF86E0900F5CF18
:10482000F9F00900F5CFFAF001EE00F07B0EEE6A28
:10483000E806FDE100EEF1F0080EEE6AE806FDE1A3
:104840005B6A5A6A5C905C92000EF86E0001D9EFC8
:104850001BF0D6C0DAF0D7C0DBF0000E0001F26F1B
:10486000000EF16F47EF24F0D4C0B4F0D5C0B5F01E
:10487000DA0EB66F000EB76FD8C0B8F0D9C0B9F075
:10488000F4EC09F00001B451F127B551F223DAC07C
:10489000F6FFDBC0F7FF0800F5500009D8A453EF7E
:1048A00024F055EF24F034EF24F0F1C0D4F0F2C03E
:1048B000D5F01200BF0E0C6EFF0E0D6E0AC00EF08A
:1048C0000BC00FF00C500E260D500F220F500AE1B6
:1048D0001A0E0E5CD8A06FEF24F072EF24F0010ED8
:1048E00073EF24F0000E106E116A10501110D8B43E
:1048F0007CEF24F07EEF24F085EF24F0200E0A10E8
:104900000A6E0B500B6E89EF24F00AC00AF00BC040
:104910000BF0120006C00AF007C00BF004C00CF048
:1049200005C00DF00A50086E0B50096E0A4A0B2A9A
:1049300008C0F6FF09C0F7FFF86A0CC0D9FF0DC028
:10494000DAFF0C4A0D2A070EF76403D00800F55071
:1049500005D0F6CFE1FFF7CFE2FFE750DF6EDF5083
:10496000D8A4B5EF24F0B7EF24F092EF24F01200B2
:10497000E00E0001E86F000EE96FDCC0EAF0DDC078
:10498000EBF0000EED6F000EEC6F000EEF6F000EFF
:10499000EE6FEA0ED46F000ED56FDEC0D6F0DFC02A
:1049A000D7F0E80ED86F000ED96F29EC24F0000183
:1049B000EC51DC25D96EED51DD21DA6E000EDF6E93
:1049C0001200010E0A6E200E04180510D8B4EBEF89
:1049D00024F0EDEF24F006EF25F0F70E066EFF0E43
:1049E000076E04C008F005C009F0065008260750FD
:1049F0000922095009E1050E085CD8A002EF25F054
:104A000004EF25F006EF25F0000E0A6E0AC004F050
:104A1000056A1200000E391A000E3A1A000E3B1AEF
:104A2000800E3C1A35C025F036C026F037C027F07E
:104A300038C028F039C029F03AC02AF03BC02BF02A
:104A40003CC02CF04DEC0FF025C035F026C036F000
:104A500027C037F028C038F01200000E136E000E89
:104A6000126E3EEF25F011C004F0056A0FC006F08B
:104A700010C007F041EC21F0124A132A12500D2405
:104A8000D96E13500E20DA6EDF50116E1150D8A47B
:104A90004CEF25F04EEF25F033EF25F01200056EB8
:104AA000C580C5B056EF25F058EF25F051EF25F041
:104AB0009E96C7B65EEF25F060EF25F062EF25F019
:104AC00050EF25F0055092EC26F0C5AC6AEF25F0CA
:104AD0006CEF25F070EF25F0D3EC26F050EF25F0C9
:104AE0001200000E086E000E076E82EF25F00750D0
:104AF0000524D96E08500620DA6EDF50C8EC26F087
:104B0000074A082A07500524D96E08500620DA6E95
:104B1000DF50D8A48EEF25F090EF25F077EF25F049
:104B2000120017BE9EEF25F0175006E11604D8B00C
:104B30009CEF25F09EEF25F0ACEF25F016C018F0A5
:104B400017C019F0181E191E184A192A18C016F095
:104B500019C017F0B0EF25F016C016F017C017F007
:104B60001200046EC586C7A0B8EF25F0BAEF25F095
:104B7000B3EF25F0C9CF05F00450D8A4C2EF25F05B
:104B8000C4EF25F0C8EF25F0E8EC26F0CAEF25F0D9
:104B9000DEEC26F0FBEC26F005501200BF0E066E90
:104BA000FF0E076E04C008F005C009F00650082685
:104BB0000750092209500AE11A0E085CD8A0E3EF59
:104BC00025F0E6EF25F0010EE7EF25F0000E046E6C
:104BD000056A1200D00E066EFF0E076E04C008F0C4
:104BE00005C009F0065008260750092209500AE1BD
:104BF0000A0E085CD8A0FFEF25F002EF26F0010EA8
:104C000003EF26F0000E046E056A12000450051032
:104C100006100710D8B40FEF26F011EF26F019EFA9
:104C200026F0000E041A000E051A000E061A800E59
:104C3000071A04C004F005C005F006C006F007C05E
:104C400007F0120004C006F005C007F02AEF26F0B6
:104C5000044A052A04C0D9FF05C0DAFFDF50D8A4F2
:104C600034EF26F036EF26F028EF26F00650045CED
:104C7000046E07500558056E120004C108F005C106
:104C800009F006C10AF007C10BF004C008F005C026
:104C900009F006C00AF007C00BF00B9E08C004F034
:104CA00009C005F00AC006F00BC007F01200056E3F
:104CB000C580C5B05EEF26F060EF26F059EF26F014
:104CC0009E96C7B666EF26F068EF26F06AEF26F0EC
:104CD0006DEF26F0055092EC26F01200045006020B
:104CE000F3CF08F0F4CF09F004500702F35009267F
:104CF00005500602F350092608C004F009C005F06B
:104D00001200FF0E086EFF0E096EFF0E0A6E7F0E78
:104D10000B6E08C004F009C005F00AC006F00BC015
:104D200007F01200046E04C0C9FFFBEC26F0C5AC0E
:104D30009CEF26F09EEF26F0A1EF26F0010EA2EFE9
:104D400026F0020E12000600F9C001F0FAC002F0CF
:104D5000B6EC23F0FE0ED66ED768F2945C9211008A
:104D6000000E936E000E816E800ED56EF28AFE0EDE
:104D7000D66ED768F2941200800EC76E280EC66EEB
:104D8000000EC56E130EC86E9E969382938012001D
:104D9000046EACA2CEEF26F0D0EF26F0C9EF26F0DD
:104DA00004C0ADFF1200C584C5B4D9EF26F0DBEF17
:104DB00026F0D4EF26F09E96C7501200C58AC5880B
:104DC000C5B8E5EF26F0E7EF26F0E0EF26F0120099
:104DD000C59AC588C5B8EFEF26F0F1EF26F0EAEFE7
:104DE00026F01200240EAC6E900EAB6E330EAF6E3A
:104DF000828C948E12009EA600EF27F002EF27F01F
:104E0000FBEF26F09E9612009A99993E46001200FA
:020000040020DA
:08000000FFFFFFFFFFFFFFFF00
:020000040030CA
:0E000000000C011EFF0381FF0FC00FE00F4038
:00000001FF
